:020000040800F2
:100000000348044B834202D0034B03B118477047A7
:100010009C0E00209C0E00200000000005480649B0
:100020000B1AD90F01EBA301491002D0034B03B106
:10003000184770479C0E00209C0E00200000000016
:1000400010B5064C237843B9FFF7DAFF044B13B120
:100050000448AFF300800123237010BDA00E0020E0
:10006000000000009866060808B5044B1BB104495F
:100070000448AFF30080BDE80840CFE7000000006F
:10008000A40E00209866060808B5062000F010FDB2
:10009000012003F06BFC00BF002301461A461846FE
:1000A00001F022BB13460A460146022001F01CBBA8
:1000B00038B50A4C0A4D641BA4100AD004F18043E1
:1000C000013B05EB8305013C55F804399847002CAA
:1000D000F9D1BDE8384066F0E5BA00BF3CD2060869
:1000E00038D20608024B0146186800F00BB800BF72
:1000F00008000020024B0146186801F079BB00BFE0
:10010000080000202DE9F04F01F10B05162D83B0FA
:10011000064623D8102900F2B98000F027FC1025EC
:1001200018230220CD4F3B44A3F108025C6894429F
:1001300000F0B980636823F003032344D4E902513B
:100140005A68E96042F0010230468D605A6000F062
:100150000FFC0834204603B0BDE8F08F35F00705EA
:1001600000F19480A94200F2918000F0FFFBB5F508
:10017000FC7FC0F09D816B0A00F08F80042B00F2A1
:100180007381AB0903F1390003F1380CC300B34F9D
:100190003B44A3F108015C68A14206D10CE0002AAF
:1001A00080F22B81E468A14206D0636823F0030348
:1001B0005A1B0F2AF3DD60463C69DFF8A4C2644590
:1001C0007CD0636823F003035A1B0F2A00F37E815F
:1001D000002AC7E904CC80F26F81B3F5007F80F07C
:1001E0001A81DB08591C7A6857F83180C4F80880F6
:1001F0004FF0010E9B100EFA03F307EBC10E1343F1
:10020000AEF10802E2607B6047F83140C8F80C406C
:100210008210012494409C4256D81C4206D120F002
:10022000030064001C4200F10400FAD007EBC0098F
:10023000CE468046DEF80C309E4507D120E1002AEC
:1002400080F22781DB689E4500F01A81596821F011
:1002500003014A1B0F2AF2DDD3E9028E5C1945F037
:1002600001055D6042F00105C8F80CE03046CEF8AB
:100270000880C7E90444C4E902CC65605A50009381
:1002800000F076FB009B03F1080402E00C233360CE
:100290000024204603B0BDE8F08F4FF400734020E7
:1002A0004FF03F0C73E7DC68A34208BF02307FF4D5
:1002B00041AF3C69DFF8A8C1644582D17B688210F8
:1002C000012494409C42A8D9BC68636823F00308C9
:1002D000A84503D3A8EB05030F2B7EDCDFF8849140
:1002E000D7F80824D9F80030013204EB080A2B446F
:1002F00000F0378103F580530F3323F47F6B2BF02D
:100300000F0B5946304600F035FB411C024600F009
:10031000F780824500F2F280D9F804105944C9F8F8
:1003200004100B4600F05381D7F8081401311BBFAD
:10033000A2EB0A0A5344C7F80824C9F8043012F0A3
:10034000070300F01A81C3F108010A44C3F5805184
:1003500093440831A1EB0B01C1F30B0A514630461F
:100360000193009200F006FB421CDDE9002300F03F
:100370005381831A03EB0A0BD9F80410BA604BF0CF
:1003800001035144BC425360C9F8041000F02B81B2
:10039000B8F10F0F40F229816368A8F10C0020F03A
:1003A000070003F0010304EB000C03434FF0050EBC
:1003B0000F286360CCE901EE00F2358153681446E2
:1003C000D9F82C208A42D9F8302038BFC9F82C102F
:1003D0008A4238BFC9F8301094E0621943F0010333
:1003E00045F0010565603046BA60536000F0C0FA20
:1003F0000834204603B0BDE8F08F2344E1685A6812
:10040000A56842F00102E96030468D605A6000F054
:10041000AFFA08343DE75A0A042A69D9142A00F2CF
:10042000BE8002F15C01C9005B3207EB010E795816
:10043000AEF1080E8E4500F097804A6822F0030264
:100440009A4202D989688E45F7D1D1F80CE07B68D1
:10045000C4E9021ECEF80840CC60D9E6380400207A
:1004600040040020BC0E0020142B59D9542B00F25C
:100470009E802B0B03F16F0003F16E0CC30086E628
:1004800008F1010818F0030F0EF1080E7FF4D2AE48
:1004900051E019441C464A68DB6854F8085F42F092
:1004A00001024A603046EB609D6000F061FAF0E6C0
:1004B000E80805F1080335E6234430465A6842F05F
:1004C00001025A60083400F053FAE2E6611945F07F
:1004D000010E42F00105C4F804E03046C7E90411FA
:1004E000C1E902CC4D60E25000F042FA0834D0E697
:1004F0009A0902F13901C900383296E7BC4260D04E
:10050000BC68636823F0030BAB45ABEB050302D378
:100510000F2B3FF762AF304600F02AFA0024B8E60E
:1005200003F15C0003F15B0CC30030E659F80839B5
:100530004B4540F0968010F0030F00F1FF30F5D1ED
:100540007B6823EA04037B6064009C423FF6BCAEF8
:100550001CB9B9E6640008F104081C42FAD0404610
:1005600064E603F1100BCCE67B6892104FF00108B3
:1005700008FA02F213437B606AE702EB0B0149427F
:10058000C1F30B0A514630460193009200F0F2F994
:10059000431CDDE900237FF4ECAE9A46ECE6542AD6
:1005A00026D81A0B02F16F01C9006E323DE7B3F590
:1005B000AA7F26D8EB0B03F1780003F1770CC30078
:1005C000E5E5D9F804305B44C9F80430ACE6CAF379
:1005D0000B0000287FF4A8AE08EB0B03BC6843F0C7
:1005E00001036360ECE61446EAE60123536092E7F8
:1005F000B2F5AA7F21D8DA0B02F17801C90077326F
:1006000013E740F25452934221D8AB0C03F17D0022
:1006100003F17C0CC300BAE5083B9B44ABEB020B37
:100620004FF0000AA8E604F10801304601F0E0F8B6
:10063000BC68D9F804106368C2E640F254518A429B
:100640000BD89A0C02F17D01C9007C32EDE64FF423
:100650007E737F204FF07E0C99E54FF47E717E22F1
:10066000E3E67B6870E700BF032A70B412D940EA62
:100670000105AD0704460B4620D11946204653F824
:10068000045B54F8046BAE4218D1043A032A2046A6
:100690001946F2D8541E72B103780A789A4208BFFC
:1006A000241806D00CE010F8013F11F8012F9342F6
:1006B00006D1A042F7D1002070BC7047541EEBE772
:1006C000981A70BC704700BF844641EA000313F0DB
:1006D00003036DD1403A41D351F8043B40F8043B49
:1006E00051F8043B40F8043B51F8043B40F8043B0C
:1006F00051F8043B40F8043B51F8043B40F8043BFC
:1007000051F8043B40F8043B51F8043B40F8043BEB
:1007100051F8043B40F8043B51F8043B40F8043BDB
:1007200051F8043B40F8043B51F8043B40F8043BCB
:1007300051F8043B40F8043B51F8043B40F8043BBB
:1007400051F8043B40F8043B51F8043B40F8043BAB
:1007500051F8043B40F8043B403ABDD2303211D34B
:1007600051F8043B40F8043B51F8043B40F8043B8B
:1007700051F8043B40F8043B51F8043B40F8043B7B
:10078000103AEDD20C3205D351F8043B40F8043B4B
:10079000043AF9D2043208D0D2071CBF11F8013B49
:1007A00000F8013B01D30B8803806046704700BF0F
:1007B000082A13D38B078DD010F003038AD0C3F11E
:1007C0000403D21ADB071CBF11F8013B00F8013B00
:1007D00080D331F8023B20F8023B7BE7043AD9D3BF
:1007E000013A11F8013B00F8013BF9D20B78037094
:1007F0004B7843708B788370604670478842F0B4C2
:100800000DD98B1883420AD9841832B1224613F8C5
:10081000014D02F8014D9942F9D1F0BC70470F2A01
:100820000ED80346541E002AF7D001340C44013B75
:1008300011F8012B03F8012FA142F9D1F0BC704748
:1008400040EA01039B073BD1A2F110073F0901F1E8
:10085000200606EB071601F1100300F1100453F80F
:10086000105C44F8105C53F80C5C44F80C5C53F8D2
:10087000085C44F8085C53F8045C44F8045C1033EA
:10088000B34204F11004EAD17B1C1B0112F00C0FDF
:10089000194402F00F05034415D0043DAD0803EBE5
:1008A000850C1C1F0E4656F8047B44F8047F6445F3
:1008B000F9D10135AD002B44294402F00302B1E720
:1008C000541E0346B1E72A46ACE700BFF0B48607E2
:1008D00046D0541E002A3CD0CAB2034602E014F1AE
:1008E000FF3436D303F8012B9D07F8D1032C29D907
:1008F000CDB245EA05250F2C45EA054533D9A4F1CB
:100900001006360903F1200707EB061703F1100262
:1009100042E9045542E902551032BA42F8D1721C3C
:1009200014F00C0F03EB021204F00F0613D0331F68
:1009300023F003030433134442F8045B9342FBD1D6
:1009400006F003042CB1C9B21C4403F8011B9C42FD
:10095000FBD1F0BC704734461346002CF3D1F8E7C6
:1009600014460346C2E71A462646E0E7704700BF32
:10097000704700BF38B5074C002305460846236082
:1009800002F0E6FF431C00D038BD2368002BFBD0EB
:100990002B6038BDC088002010B580210446FFF7C9
:1009A000B1FBC4F8DC0240B1031F00227C3043F8E5
:1009B000042F8342FBD1002010BD4FF0FF3010BD4B
:1009C000D0F8DC320BB100207047E5E71F2970B585
:1009D000054609D8D0F8DC3216460C464BB153F820
:1009E000240043F8246070BD162202604FF0FF30EF
:1009F00070BDFFF7D1FF10B9D5F8DC32EFE74FF04B
:100A0000FF3070BD1F2938B522D8D0F8DC2205464A
:100A10000C466AB152F8213053B1012B16D0591C43
:100A200010D00025204642F824509847284638BD6B
:100A3000284600F073F8224601462846BDE83840B3
:100A400000F058B816230360012038BD002038BDDF
:100A5000162303604FF0FF3038BD00BF1F2923D895
:100A600038B5D0F8DC3205460C4683B153F8242063
:100A700003EB84034AB1511C11D0012A0DD000258B
:100A800020461D609047284638BD012038BDFFF73D
:100A900083FF30B9D5F8DC32E8E7032038BD022007
:100AA00038BD4FF0FF3038BD4FF0FF30704700BF0A
:100AB000024B01461868FFF7A5BF00BF08000020E1
:100AC000024B0A4601461868FFF780BF0800002065
:100AD000034B1868D0F8DC320BB1002070475BE79D
:100AE00008000020024B01461868FFF7B7BF00BF9F
:100AF0000800002038B50B46074C0546114618463D
:100B00000023236002F01CFF431C00D038BD236883
:100B1000002BFBD02B6038BDC088002002F008BF3E
:100B2000830710B5044610D10268A2F1013323EA0D
:100B3000020313F0803F08D150F8042FA2F10133D3
:100B400023EA020313F0803FF6D003781BB110F8BC
:100B5000013F002BFBD100F0E1F9204610BD00BFA2
:100B6000C9B200F00303002935D07BB10378002B14
:100B700057D0994252D0431C05E013F8012B002AAC
:100B80004DD08A424AD09A071846F6D170B441EA4D
:100B90000126046846EA064601E050F8044F86EA5A
:100BA0000405A5F10132A4F1013322EA050223EA8A
:100BB0000403134313F0803FEFD0037843B199420D
:100BC00002D106E08B4204D010F8013F002BF9D18E
:100BD000184670BC70474BB10378FBB1431C02E070
:100BE00002780133D2B199071846F9D10268A2F10F
:100BF000013323EA020313F0803F08D150F8042F99
:100C0000A2F1013323EA020313F0803FF6D0037808
:100C100023B110F8013F002BFBD1704770471046FD
:100C200070471846704700BF000000000000000039
:100C300000000000000000000000000000000000B4
:100C4000A2EB0300704700BF02780B78012A28BF8F
:100C50009A42F5D16DE9044540EA0104CDE9026705
:100C60006FF0000C4FEA447212B380EA010414F0F2
:100C7000070F6AD100F0070420F0070004F0030515
:100C800021F007014FEAC505F0E8042314F0040F32
:100C9000F1E804670CFA05F462EA040266EA040665
:100CA0000AD063EA0403624667EA0407664603E083
:100CB000F0E80423F1E8046782FA4CF582EA0604BE
:100CC000A4FA8CF46CBB83FA4CF583EA0705A5FA09
:100CD0008CF595B950E9022351E9026782FA4CF587
:100CE00082EA0604A4FA8CF483FA4CF583EA070539
:100CF000A5FA8CF52543DBD09CB92DBAB5FA85F45D
:100D000024F0070427FA04F1DDE9026723FA04F36B
:100D100003F0FF0001F0FF01FDE80445A0EB010036
:100D2000704724BAB4FA84F424F0070426FA04F1D4
:100D3000DDE9026722FA04F202F0FF0001F0FF0190
:100D4000FDE80445A0EB0100704714F0030F3CD10F
:100D500010F0030428D150F8082B51F8083B82FA10
:100D60004CF582EA0305A5FA8CF55DB950F8042C20
:100D700051F8043C82FA4CF582EA0305A5FA8CF599
:100D8000002DE8D02DBAB5FA85F424F0070423FA33
:100D900004F122FA04F202F0FF0001F0FF01FDE885
:100DA0000445A0EB010070474FEAC40420F00300A3
:100DB00050F8082B21F0030151F8083B0CFA04F419
:100DC00062EA040263EA0403C9E710F003041AD0DC
:100DD000A1EB040120F00300E40750F8042B06D037
:100DE0000FD28B785FFAA2F4E41A06D12BB1CB783C
:100DF0005FFAB2F4E41A00D11BB920465DF8104B3B
:100E0000704701F1040150F8042BCC0721F00301D5
:100E100051F8043B48D824D222F07F4482FA4CF5A2
:100E200094EA1325A5FA8CF50AD165B951F8043B6B
:100E300084EA0204B4EB036F0ED150F8042BEBE705
:100E40004FEA132355E035F07F454DD10878FDE892
:100E50000445C0F1000070474FEA126203F0FF033F
:100E600047E002EA1C4482FA4CF594EA1345A5FADD
:100E70008CF50AD165B951F8043B84EA0204B4EB5D
:100E8000034F0CD150F8042BEBE74FEA134330E04B
:100E900015EA1C4528D10B884FEA124229E04FEA97
:100EA000124203EA1C4324E002F0FF0482FA4CF5EC
:100EB00094EA1365A5FA8CF50AD165B951F8043B9B
:100EC00084EA0204B4EB032F09D150F8042BEBE7BA
:100ED0004FEA13630DE015F0FF0F05D10B684FEAE1
:100EE000122223F07F4304E04FF00000FDE80445A8
:100EF000704712BA1BBA82FA4CF482EA0304A4FACD
:100F00008CF5B5FA85F402FA04F203FA04F34FEA19
:100F10001260FDE80445A0EB1360704780EA01020F
:100F2000844612F0030F4FD111F0030F32D14DF868
:100F3000044D11F0040F51F8043B0BD0A3F1013222
:100F40009A4312F0803F04BF4CF8043B51F8043B35
:100F500016D100BF51F8044BA3F101329A4312F0AD
:100F6000803FA4F101320BD14CF8043BA24312F0B4
:100F7000803F04BF51F8043B4CF8044BEAD02346B1
:100F80000CF8013B13F0FF0F4FEA3323F8D15DF863
:100F9000044B704711F0010F06D011F8012B0CF82B
:100FA000012B002A08BF704711F0020FBFD031F8A3
:100FB000022B12F0FF0F16BF2CF8022B8CF800202A
:100FC00012F47F4FB3D1704711F8012B0CF8012BAD
:100FD000002AF9D1704700BF70B404789CB10E7834
:100FE00005464EB1A6420BD00A4601E0A34207D007
:100FF00012F8013F002BF9D115F8014F002CF0D168
:10100000281A70BC70472046FBE700BF00000000B4
:1010100000000000000000000000000000000000D0
:1010200000000000000000000000000000000000C0
:1010300000000000000000000000000000000000B0
:1010400090F800F06DE9024520F007016FF0000C08
:1010500010F0070491F820F040F049804FF00004B0
:101060006FF00700D1E9002391F840F000F108008B
:1010700082FA4CF2A4FA8CF283FA4CF3A2FA8CF3C3
:101080004BBBD1E9022382FA4CF200F10800A4FA2A
:101090008CF283FA4CF3A2FA8CF3E3B9D1E904237E
:1010A00082FA4CF200F10800A4FA8CF283FA4CF3B5
:1010B000A2FA8CF37BB9D1E9062301F1200182FA6F
:1010C0004CF200F10800A4FA8CF283FA4CF3A2FA75
:1010D0008CF3002BC6D0002A04BF04301A4612BA83
:1010E000B2FA82F2FDE8024500EBD2007047D1E986
:1010F000002304F00305C4F100004FEAC50514F015
:10110000040F91F840F00CFA05F562EA05021CBFE5
:1011100063EA050362464FF00004A9E7830730B491
:1011200027D10468A4F1013323EA040313F0803FBC
:10113000034608D153F8045FA5F1013424EA0504FD
:1011400014F0803FF6D01C781CB113F8014F002C2E
:10115000FBD101399D189D4202F1FF3207D011F8F1
:10116000014F03F8014B14B1002AF4D11A7030BCBE
:1011700070470346E7E700BF002A46D040EA010374
:1011800013F00303F0B425D1032A23D904680D68B2
:10119000AC423CD1043A35D0A4F1013525EA04042F
:1011A00014F0803F2ED1071D0D1D0DE057F8043BB4
:1011B0000E68A3F10134B34224EA030427D1043AB0
:1011C00020D014F0803F1DD1032A2946384605F16E
:1011D0000405EBD803780D789D4202F1FF360ED15D
:1011E00086B17BB1044602E082180BD053B114F8EB
:1011F000013F11F8015FAB42A6EB0402F4D0581B8B
:10120000F0BC70470020F0BC704710467047037870
:101210000D789D4202F1FF36E3D0F0E770B440EA6A
:101220000104A30727D1032A25D90B4606461946F0
:1012300053F8045BA5F1013424EA050414F0803F5F
:1012400006D1043A032A46F8045B1946EFD882B166
:1012500033460C7803F8014B551E74B132442E44CA
:1012600005E011F8014FF51A03F8014B2CB19A4231
:10127000F7D170BC70470646E9E7002DF9D01D4450
:10128000002203F8012BAB42FBD170BC704700BFBA
:101290002DE9F04F0124254688461646AE462A46DB
:1012A000ADF21C4D07461C4600214FF0FF35531888
:1012B0009C4206EB05000ED9805C16F803C08445FD
:1012C00080F0CC8019460122A3EB050E53189C42F6
:1012D00006EB0500F0D8CDF80CE04FF0010E724699
:1012E00000214FF0FF3053189C4206EB000C0FD941
:1012F0001CF802C016F80390E14540F2B68019468A
:101300000122A3EB000E53189C4206EB000CEFD811
:101310006B1C01309842029328BFCDE9020E05AB49
:101320000DF2144243F8044F9342FBD1631E009325
:10133000002C00F01681009B06AD721E98190195D5
:1013400012F8011FD34323443344824245F821302D
:10135000F6D1DDE902233046F118FFF785F90028C0
:1013600040F09680029B013B0593F318824681462C
:10137000049307EB090E009B019A1EF8033052F804
:101380002330EBB1BAF1000F03D0039A934238BF78
:10139000A31A99444FF0000AA8EB04034B45E8D286
:1013A00007EB080044F4006100F01CFB8044A8EB4C
:1013B00004034B45DDD200200DF21C4DBDE8F08F3B
:1013C000029B534538BF53461D46009B9D4218D291
:1013D00005EB0902715DB85C88423A4406EB0503EF
:1013E00034D1A4F1020CB444C6F1010B05E013F8AA
:1013F000010F12F8011F884228D19C450BEB030511
:10140000F5D1029B9A4580F0A980059B049A4B4434
:101410001178FA5C91423B4440F0A0800AEB090548
:101420003D44049A05E012F8010D13F8011D8842AD
:1014300003D1AB42A3EB0E0CF5D10AF1010AE24550
:101440007DD8039B9944A4EB030AA5E7029BC3F153
:1014500001039944A9444FF0000A9DE70CD04FF0D6
:10146000010E0D467246714421E70BD04FF0010E7C
:1014700008467246714436E7724512BF013219467A
:10148000012214E7724512BF0132194601222AE7F0
:10149000029AA31A934238BF1346511E0133059393
:1014A000731804910393002506EB020B07EB050E5E
:1014B000009A01991EF8023051F8233083B11D447F
:1014C000A8EB04039D42F1D907EB080044F4006146
:1014D00000F088FA8044A8EB04039D42E6D96AE74D
:1014E000029B934217D2EA189BF80030B95C9942EC
:1014F0003A4429D1A4F1020CB4445B46C6F1010977
:1015000005E013F8010F12F8011F88421ED1634550
:1015100009EB030AF5D1049B5A1C10D0EA18039B6F
:10152000B95C1B7899423A4416D1039B05E013F845
:10153000010D12F8011D88420ED1B342F7D1704659
:101540000DF21C4DBDE8F08FDDF808A0029BC3F141
:1015500001031D445544B3E7059BB0E7DDF808C01F
:101560006BE706AB0193F4E62DE9F0410E460978EE
:1015700090B00446002958D07278002A00F08D807F
:10158000B078002855D0F378002B00F08D803379A7
:10159000002B5FD03046FFF753FD804640F40071CA
:1015A000204600F01FFA804572D8B8F1FE0F00F215
:1015B0009280A0EB0807402208F101016846274409
:1015C000FFF784F9B8F1000F10D0731E03EB080584
:1015D0005FFA88F013F8012F10A902F03F020A44C5
:1015E000F11A0144AB4202F8401CF3D1013C10AAAD
:1015F00014F8083003F03F03134413F8403C1C4434
:10160000A74203D238E02C44A74235D314F808503F
:1016100010AB05F03F051D4442463146204615F803
:10162000405CFFF721F80028EDD1204610B0BDE85E
:10163000F081237842EA014253B3601C617800E0F4
:10164000204641EA0343441C11B39A424178F7D142
:10165000441EEAE72278DAB1306800BA02E0834239
:1016600008D00C4642EA03236278611C002AF6D1B6
:1016700083420DD1033CD8E717F8083007EB080088
:1016800033B14FF4006100F0ADF90744A742ADD289
:101690000024204610B0BDE8F081FFF761FA04464F
:1016A000204610B0BDE8F0811204237842EA0162BE
:1016B00042EA0022002BEBD01B02601C617800E0A4
:1016C00020460B431B02441C0029E1D09A4241787A
:1016D000F6D1841EA9E70146434620463246FFF76D
:1016E000D7FD0446A1E700BFF0B4184C2568D5F833
:1016F000484114B365681F2D24DC38B9AB1C013593
:10170000656044F823100020F0BC704704EB8506A8
:101710000127C6F8882007FA05F2D4F88871022854
:1017200047EA0207C4F88871C6F80831E6D1D4F850
:101730008C311A43C4F88C21E0E705F5A674C5F88E
:101740004841D7E74FF0FF30DEE700BF54B6050849
:10175000F8B5244F0C460646FFF708F9BB685D68EC
:10176000C4F57E610F3125F00305294421F47F6122
:1017700021F00F01A1F58054B4F5805F07DB002153
:101780003046FFF7F7F8BB682B44984204D0304648
:10179000FFF7EEF80020F8BD61423046FFF7EAF8A7
:1017A00001300DD0104BBA6819682D1B45F00105AA
:1017B0003046091B55601960FFF7DAF80120F8BDC3
:1017C00000213046FFF7D6F8BA68831A0F2BDEDD0A
:1017D000064C0549246843F00103001B5360086070
:1017E000D5E700BF38040020C00E002040080020CC
:1017F00000295ED0F8B50F460646FFF7B7F857F850
:1018000004CC754D2CF00103A7F10800C218A9689B
:101810005468914224F0030400F084801CF0010F0E
:10182000546002EB040133D157F808EC4968A0EB8F
:101830000E0005F1080C87686745734401F001014B
:1018400060D0D0F80CE0C7F80CE0CEF808700029A2
:1018500000F08D8043F0010141601360B3F5007F1B
:1018600030D2DB08591C6C689A1001239340234343
:1018700005EBC10255F831406B60083AC0E90242FD
:1018800045F83100E0603046BDE8F840FFF770B839
:101890004968C9070ED4234405F1080C91686145D5
:1018A00043F001046BD0D268CA6091604460C350B9
:1018B000D4E7704743F00101B3F5007F47F8041CFB
:1018C0001360CED35A0A042A46D89A0902F139077E
:1018D000FF0002F13801EC19EA59083C944255D056
:1018E000516821F00301994202D992689442F7D1DC
:1018F000D468C0E90224A060D0603046BDE8F8405A
:10190000FFF736B8002962D1D2E90221234443F01F
:101910000104D1608A604460C3503046BDE8F8409D
:10192000FFF726B81CF0010F234407D157F8082C05
:10193000801A1344D0E90212CA609160274A1268E3
:1019400043F001019A424160A8609CD8244B304684
:101950001968FFF7FDFE96E7142A0AD9542A1DD804
:101960001A0B02F16F07FF0002F16E01B3E7234487
:1019700094E702F15C07FF0002F15B01ABE7C5E908
:101980000400C0E902CC4460C3507CE76B68891056
:10199000012707FA01F119436960AAE7B2F5AA7FA6
:1019A00006D8DA0B02F17807FF0002F1770192E71F
:1019B00040F254518A4206D89A0C02F17D07FF008A
:1019C00002F17C0187E74FF47E777E2183E743F0C5
:1019D00001014160136056E73804002044080020EC
:1019E000BC0E0020C9B10278CAB1431C014499421F
:1019F0001A4616D010B41478013334B199421A46FD
:101A000007D014780133002CF8D1101A5DF8044B7C
:101A10007047081A5DF8044B704708467047104637
:101A20007047081A704700BF81F0004102E000BF14
:101A300083F0004330B54FEA41044FEA430594EA8E
:101A4000050F08BF90EA020F1FBF54EA000C55EAC9
:101A5000020C7FEA645C7FEA655C00F0E2804FEA9A
:101A60005454D4EB5555B8BF6D420CDD2C4480EA7C
:101A7000020281EA030382EA000083EA010180EAAC
:101A8000020281EA0303362D88BF30BD11F0004FFA
:101A90004FEA01314FF4801C4CEA113102D0404230
:101AA00061EB410113F0004F4FEA03334CEA13336B
:101AB00002D0524263EB430394EA050F00F0A78083
:101AC000A4F10104D5F1200E0DDB02FA0EFC22FA7E
:101AD00005F2801841F1000103FA0EF2801843FA72
:101AE00005F359410EE0A5F120050EF1200E012A63
:101AF00003FA0EFC28BF4CF0020C43FA05F3C018A1
:101B000051EBE37101F0004507D54FF0000EDCF119
:101B1000000C7EEB00006EEB0101B1F5801F1BD3C2
:101B2000B1F5001F0CD349085FEA30004FEA3C0CC6
:101B300004F101044FEA445212F5800F80F09A80BC
:101B4000BCF1004F08BF5FEA500C50F1000041EBC0
:101B5000045141EA050130BD5FEA4C0C404141EBC4
:101B60000101013C28BFB1F5801FE9D291F0000FBF
:101B700004BF01460020B1FA81F308BF2033A3F16E
:101B80000B03B3F120020CDA0C3208DD02F1140C65
:101B9000C2F10C0201FA0CF021FA02F10CE002F1A0
:101BA0001402D8BFC2F1200C01FA02F120FA0CFC99
:101BB000DCBF41EA0C019040E41AA2BF01EB0451E2
:101BC000294330BD6FEA04041F3C1CDA0C340EDCE0
:101BD00004F11404C4F1200220FA04F001FA02F323
:101BE00040EA030021FA04F345EA030130BDC4F1E1
:101BF0000C04C4F1200220FA02F001FA04F340EAD6
:101C00000300294630BD21FA04F0294630BD94F086
:101C1000000F83F4801306BF81F480110134013D6D
:101C20004EE77FEA645C18BF7FEA655C29D094EADE
:101C3000050F08BF90EA020F05D054EA000C04BF5C
:101C40001946104630BD91EA030F1EBF0021002047
:101C500030BD5FEA545C05D14000494128BF41F0E6
:101C6000004130BD14F580043CBF01F5801130BD4A
:101C700001F0004545F0FE4141F470014FF00000D5
:101C800030BD7FEA645C1ABF194610467FEA655C86
:101C90001CBF0B46024650EA013406BF52EA033528
:101CA00091EA030F41F4002130BD00BF90F0000F16
:101CB00004BF0021704730B54FF4806404F1320452
:101CC0004FF000054FF0000150E700BF90F0000F0B
:101CD00004BF0021704730B54FF4806404F1320432
:101CE00010F0004548BF40424FF000013EE700BF02
:101CF00042004FEAE2014FEA31014FEA02701FBF92
:101D000012F07F4393F07F4F81F06051704732F0C3
:101D10007F4208BF704793F07F4F04BF41F400211A
:101D2000704730B54FF4607401F0004521F0004178
:101D30001CE700BF50EA010208BF704730B54FF002
:101D400000050AE050EA010208BF704730B511F003
:101D5000004502D5404261EB41014FF4806404F13B
:101D600032045FEA915C3FF4D8AE4FF003025FEAC1
:101D7000DC0C18BF03325FEADC0C18BF033202EB45
:101D8000DC02C2F1200300FA03FC20FA02F001FA9F
:101D900003FE40EA0E0021FA02F11444BDE600BF42
:101DA00070B54FF0FF0C4CF4E06C1CEA11541DBFF1
:101DB0001CEA135594EA0C0F95EA0C0F00F0DEF8BC
:101DC0002C4481EA030621EA4C5123EA4C5350EAA1
:101DD000013518BF52EA033541F4801143F48013F2
:101DE00038D0A0FB02CE4FF00005E1FB02E506F083
:101DF0000042E0FB03E54FF00006E1FB03569CF0D8
:101E0000000F18BF4EF0010EA4F1FF04B6F5007FDD
:101E100064F5407404D25FEA4E0E6D4146EB06064F
:101E200042EAC62141EA55514FEAC52040EA5E50D8
:101E30004FEACE2EB4F1FD0C88BFBCF5E06F1ED882
:101E4000BEF1004F08BF5FEA500E50F1000041EBB9
:101E5000045170BD06F0004646EA010140EA020066
:101E600081EA0301B4EB5C04C2BFD4EB0C0541EA88
:101E7000045170BD41F480114FF0000E013C00F39D
:101E8000AB8014F1360FDEBF002001F0004170BDC1
:101E9000C4F10004203C35DA0C341BDC04F11404DA
:101EA000C4F1200500FA05F320FA04F001FA05F266
:101EB00040EA020001F0004221F0004110EBD37033
:101EC00021FA04F642EB06015EEA430E08BF20EA5F
:101ED000D37070BDC4F10C04C4F1200500FA04F302
:101EE00020FA05F001FA04F240EA020001F0004194
:101EF00010EBD37041F100015EEA430E08BF20EA07
:101F0000D37070BDC4F1200500FA05F24EEA020E4E
:101F100020FA04F301FA05F243EA020321FA04F07D
:101F200001F0004121FA04F220EA020000EBD37034
:101F30005EEA430E08BF20EAD37070BD94F0000F34
:101F40000FD101F00046400041EB010111F4801F68
:101F500008BF013CF7D041EA060195F0000F18BF19
:101F6000704703F00046520043EB030313F4801F55
:101F700008BF013DF7D043EA0603704794EA0C0F0F
:101F80000CEA135518BF95EA0C0F0CD050EA410625
:101F900018BF52EA4306D1D181EA030101F00041A2
:101FA0004FF0000070BD50EA410606BF10461946CA
:101FB00052EA430619D094EA0C0F02D150EA0136D6
:101FC00013D195EA0C0F05D152EA03361CBF104617
:101FD00019460AD181EA030101F0004141F0FE41B6
:101FE00041F470014FF0000070BD41F0FE4141F43A
:101FF000780170BD70B54FF0FF0C4CF4E06C1CEA3A
:1020000011541DBF1CEA135594EA0C0F95EA0C0FEE
:1020100000F0A7F8A4EB050481EA030E52EA0335A9
:102020004FEA013100F088804FEA03334FF08055CA
:1020300045EA131343EA12634FEA022245EA1115F7
:1020400045EA10654FEA00260EF000419D4208BFA8
:10205000964244F1FD0404F5407402D25B084FEA55
:102060003202B61A65EB03055B084FEA32024FF401
:1020700080104FF4002CB6EB020E75EB030E22BF5E
:10208000B61A754640EA0C005B084FEA3202B6EB1E
:10209000020E75EB030E22BFB61A754640EA5C00CD
:1020A0005B084FEA3202B6EB020E75EB030E22BF5D
:1020B000B61A754640EA9C005B084FEA3202B6EB5E
:1020C000020E75EB030E22BFB61A754640EADC001D
:1020D00055EA060E18D04FEA051545EA16754FEA7F
:1020E00006164FEAC30343EA52734FEAC2025FEA9D
:1020F0001C1CC0D111F4801F0BD141EA00014FF02C
:1021000000004FF0004CB6E711F4801F04BF0143FC
:102110000020B4F1FD0C88BFBCF5E06F3FF6AFAE18
:10212000B5EB030C04BFB6EB020C5FEA500C50F1A8
:10213000000041EB045170BD0EF0004E4EEA11312B
:1021400014EB5C04C2BFD4EB0C0541EA045170BD32
:1021500041F480114FF0000E013C90E645EA060E76
:102160008DE60CEA135594EA0C0F08BF95EA0C0FA4
:102170003FF43BAF94EA0C0F0AD150EA01347FF4EC
:1021800034AF95EA0C0F7FF425AF104619462CE7C3
:1021900095EA0C0F06D152EA03353FF4FDAE104626
:1021A000194622E750EA410618BF52EA43067FF477
:1021B000C5AE50EA41047FF40DAF52EA43057FF407
:1021C000EBAE12E74FF0FF3C06E000BF4FF0010C12
:1021D00002E000BF4FF0010C4DF804CD4FEA410C76
:1021E0007FEA6C5C4FEA430C18BF7FEA6C5C1BD043
:1021F00001B050EA410C0CBF52EA430C91EA030FC4
:1022000002BF90EA020F0020704710F1000F91EA20
:10221000030F58BF994208BF90422CBFD8176FEAEE
:10222000E37040F0010070474FEA410C7FEA6C5CBC
:1022300002D150EA013C07D14FEA430C7FEA6C5CC3
:10224000D6D152EA033CD3D05DF8040B704700BFEF
:102250008446104662468C461946634600E000BF3D
:1022600001B5FFF7B7FF002848BF10F1000F01BD0F
:102270004DF808EDFFF7F4FF0CBF012000205DF8DA
:1022800008FB00BF4DF808EDFFF7EAFF34BF01205F
:1022900000205DF808FB00BF4DF808EDFFF7E0FFF8
:1022A00094BF012000205DF808FB00BF4DF808ED49
:1022B000FFF7CEFF94BF012000205DF808FB00BFB0
:1022C0004DF808EDFFF7C4FF34BF012000205DF892
:1022D00008FB00BF4FEA410212F5001215D211D5DA
:1022E0006FF47873B3EB625212D94FEAC12343F013
:1022F000004343EA505311F0004F23FA02F018BF95
:10230000404270474FF00000704750EA013005D15D
:1023100011F0004008BF6FF0004070474FF0000020
:10232000704700BF4A0011D212F5001211D20DD52C
:102330006FF47873B3EB62520ED44FEAC12343F0CB
:10234000004343EA505323FA02F070474FF0000075
:10235000704750EA013002D14FF0FF3070474FF024
:10236000000070474FEA4102B2F1E04324BFB3F5E9
:10237000001CDCF1FE5C0DD901F0004C4FEAC002FC
:102380004CEA5070B2F1004F40EB830008BF20F0E0
:102390000100704711F0804F21D113F13872BCBF9A
:1023A00001F00040704741F480114FEA5252C2F1EF
:1023B0001802C2F1200C10FA0CF320FA02F018BF38
:1023C00040F001004FEAC1234FEAD32303FA0CFC8B
:1023D00040EA0C0023FA02F34FEA4303CCE77FEA1A
:1023E000625307D150EA01331EBF4FF0FE4040F464
:1023F0004000704701F0004040F0FE4040F4000013
:10240000704700BF80F0004002E000BF81F0004153
:1024100042001FBF5FEA410392EA030F7FEA226C8A
:102420007FEA236C6AD04FEA1262D2EB1363C1BF1A
:10243000D218414048404140B8BF5B42192B88BF89
:10244000704710F0004F40F4000020F07F4018BFAC
:10245000404211F0004F41F4000121F07F4118BFCC
:10246000494292EA030F3FD0A2F1010241FA03FC74
:1024700010EB0C00C3F1200301FA03F100F000435C
:1024800002D5494260EB4000B0F5000F13D3B0F124
:10249000807F06D340084FEA310102F10102FE2A93
:1024A00051D2B1F1004F40EBC25008BF20F0010003
:1024B00040EA03007047490040EB0000013A28BFA2
:1024C000B0F5000FEDD2B0FA80FCACF1080CB2EB25
:1024D0000C0200FA0CF0AABF00EBC25052421843A3
:1024E000BCBFD0401843704792F0000F81F4000148
:1024F00006BF80F400000132013BB5E74FEA41031B
:102500007FEA226C18BF7FEA236C21D092EA030F86
:1025100004D092F0000F08BF0846704790EA010F00
:102520001CBF0020704712F07F4F04D1400028BF2D
:1025300040F00040704712F100723CBF00F500000F
:10254000704700F0004343F0FE4040F40000704745
:102550007FEA226216BF08467FEA236301464202F1
:1025600006BF5FEA412390EA010F40F48000704704
:102570004FF0000304E000BF10F0004348BF4042AA
:102580005FEA000C08BF704743F0964301464FF0E6
:1025900000001CE050EA010208BF70474FF0000342
:1025A0000AE000BF50EA010208BF704711F0004383
:1025B00002D5404261EB41015FEA010C02BF844653
:1025C0000146002043F0B64308BFA3F18053A3F5B2
:1025D0000003BCFA8CF2083AA3EBC25310DB01FAF9
:1025E00002FC634400FA02FCC2F12002BCF1004F7D
:1025F00020FA02F243EB020008BF20F0010070470E
:1026000002F1200201FA02FCC2F1200250EA4C0061
:1026100021FA02F243EB020008BF20EADC707047A7
:102620007BB972B90029BEBF00204FF0004106E01F
:1026300008BF00281CBF6FF000414FF0FF3001F0D1
:1026400075B9ADF1080C6DE904CE002909DB002B4A
:102650001ADB00F0B7F8DDF804E0DDE9022304B08E
:102660007047404261EB4101002B1BDB00F0AAF8F0
:10267000DDF804E0DDE9022304B0404261EB4101F2
:10268000524263EB43037047524263EB430300F053
:1026900099F8DDF804E0DDE9022304B0404261EB83
:1026A00041017047524263EB430300F08BF8DDF8C1
:1026B00004E0DDE9022304B0524263EB43037047B8
:1026C00053B94AB9002908BF00281CBF4FF0FF3199
:1026D0004FF0FF3001F02AB9ADF1080C6DE904CEDE
:1026E00000F070F8DDF804E0DDE9022304B0704783
:1026F00007EE900AF5EEC07AF1EE10FA01D400F080
:1027000023B8F1EE677A08B517EE900A00F01CF8CE
:10271000404261EB410108BD38B500220023044668
:102720000D46FFF7AFFD28B920462946BDE83840E1
:1027300000F02AB8204605F1004100F025F840429B
:1027400061EB410138BD00BFD0B5FFF7D1FA0C4BAA
:10275000002206460F46FFF723FBFFF7E3FD044682
:10276000FFF7A4FA074B0022FFF71AFB02460B46BD
:1027700030463946FFF75CF9FFF7D4FD2146D0BD5E
:102780000000F03D0000F041D0B50C4B00220646A1
:102790000F46FFF705FBFFF7C5FD0446FFF786FA76
:1027A000074B0022FFF7FCFA02460B46304639463B
:1027B000FFF73EF9FFF7B6FD2146D0BD0000F03D22
:1027C0000000F0412DE9F047089D04468C46002B9F
:1027D00040F083808A42174647D9B2FA82F242B16A
:1027E000C2F1200024FA00F09140974040EA010C29
:1027F00094404FEA1748230CBCFBF8F61FFA87FEFB
:1028000008FB16C143EA014306FB0EF1994209D9C0
:10281000FB1806F1FF3080F01981994240F21681D1
:10282000023E3B445B1AA4B2B3FBF8F008FB103342
:1028300044EA034400FB0EFEA64509D93C1900F109
:10284000FF3380F00581A64540F2028102383C4406
:1028500040EA0640A4EB0E0400261DB1D44000233C
:10286000C5E900433146BDE8F08702B9FFDEB2FAA0
:1028700082F2002A50D1CB1B4FEA174E1FFA87F87D
:102880000126B3FBFEFC210C0EFB1C3341EA034185
:1028900008FB0CF38B4207D979180CF1FF3002D2F8
:1028A0008B4200F2E9808446C91AA3B2B1FBFEF064
:1028B0000EFB101143EA014408FB00F8A04507D9BC
:1028C0003C1900F1FF3302D2A04500F2D98018462E
:1028D000A4EB080440EA0C40BFE78B4209D9002D65
:1028E00000F0B1800026C5E9000130463146BDE860
:1028F000F087B3FA83F6002E4AD18B4202D382428C
:1029000000F2B880841A61EB030101208C46002D8F
:10291000A8D0C5E9004CA5E7C2F1200320FA03F6D0
:10292000974001FA02F04FEA174ED9403043030CAA
:10293000B1FBFEF61FFA87F80EFB161143EA0143BE
:1029400006FB08F1994204FA02F409D9FB1806F1D2
:10295000FF3C80F08D80994240F28A80023E3B44E9
:102960005B1A81B2B3FBFEF00EFB103341EA034168
:1029700000FB08F38B4207D9791800F1FF3C73D2B2
:102980008B4271D902383944CB1A40EA064678E7BF
:10299000C6F1200C03FA06F422FA0CF31C4320FAC9
:1029A0000CF701FA06F34FEA144E21FA0CF11F431B
:1029B0003B0CB1FBFEF91FFA84F80EFB191143EA38
:1029C000014109FB08FA8A4502FA06F200FA06F309
:1029D00008D9611809F1FF3048D28A4546D9A9F1D2
:1029E00002092144A1EB0A01BFB2B1FBFEF00EFBCC
:1029F000101147EA014700FB08F8B84507D9E71965
:102A000000F1FF312ED2B8452CD90238274440EAD4
:102A10000940A7EB0807A0FB02894F45C646494677
:102A20001AD317D05DB1B3EB0E0267EB010707FABB
:102A30000CFCF2404CEA0202F740C5E900270026F0
:102A40003146BDE8F0872E4628460BE70646E9E604
:102A50001846FDE64345E5D2B8EB020E69EB0401EA
:102A60000138DFE70846D2E760468DE78146B9E7DF
:102A7000664675E730464AE7ACF1020C394413E785
:102A800002383C4424E700BF03685A004CBF43F0BF
:102A9000004323F000431844704700BF2DE9F8437A
:102AA00029B34F1E044615463E464FF0000808EB7A
:102AB000060101EBD171491004EBC1094846FFF74B
:102AC000E3FF0346C80008308F42204409D0AB42E0
:102AD00009D8FFF7D9FF0138A8420AD201F101084D
:102AE000E5E7AB4205D9884501D04E1EDFE74FF040
:102AF00000094846BDE8F883012807D0022807D01E
:102B0000044B00280CBF184600207047024870474D
:102B100002487047BD310008C1310008C5310008C6
:102B200030B5234B83B004468D1E3BB301A9284624
:102B3000AFF30080E8B101992A46FFF7AFFF0146E5
:102B4000B8B1FFF7A1FF4B68A064012B2BD0002B7D
:102B500001F1040023DBFFF797FF0023C4E913030F
:102B60000368002B10DBFFF78FFF2061002003B00C
:102B700030BD00230920236103B030BD0D490E484C
:102B8000091AC9100191D7E7C3F30360FFF7B4FF37
:102B90000028206114BF0020092003B030BD0123AC
:102BA000C4E91303DCE7002323610520DFE700BF4E
:102BB0000000000084CF06083CA106080368DA077D
:102BC00010B5044606D49B0700F1480009D500F073
:102BD0004BFC2368590709D51A070ED5DB0613D518
:102BE00010BD00F039FC23685907F5D404F1D0007A
:102BF00000F042FC23681A07F0D404F5A87000F036
:102C000043FC2368DB06EBD404F5E870BDE8104014
:102C100000F07EBC0346006800B11844704700BF56
:102C200009207047704700BF70B504460E46316CEE
:102C30002046FFF775FF054688B9336C636132465D
:102C400023692146012098470828F0D0072806D19B
:102C50002846316CFFF7E6FF301D00F0F1FBFDF771
:102C600013FA00BF2DE9F0470D1D064614460FCD9F
:102C7000ADF5727D0DF10C0CACE80F000FCDACE89A
:102C80000F000FCDACE80F0095E80F0002ADF7681C
:102C9000D6F818808CE80F0000232B6021E02B6C05
:102CA00073614FF4F07229467AA8FDF70DFD336980
:102CB0007AAA314650469847889BCDE9005821466C
:102CC0006B648146334632460120B8470446E8B972
:102CD0004FF4F0727AA92846FDF7F6FCB9F1080F17
:102CE0001BD1296C3046FFF71BFF09345FFA84FAC9
:102CF00081460028D3D0AB6B4AF01001CDE90058D3
:102D000032466B6401203346B84708B14FF00909D9
:102D100048460DF5727DBDE8F087B9F1070FF5D192
:102D20002046296CFFF77EFF03A800F089FB00BF57
:102D3000406C7047F0B5CB6B0B640E1D0F4605461B
:102D40000FCEF9B001AC0FC40FCE0FC40FCE0FC41D
:102D500096E80F004FF0FF3684E80F00009606E07B
:102D60002B696A46294698470828044608D11099D5
:102D70002846FFF7D5FE0028F2D0092079B0F0BD33
:102D80006846FFF71BFF062CF7D139462846FFF7A8
:102D90004BFF00BF30B4DD6BC160826119461D641A
:102DA000002230BC5EE700BF70B5C66843690B64A3
:102DB000AEB903690A4604460D460146022098470B
:102DC000072805D008280FD129462046FFF72CFFF9
:102DD0003046296CFFF726FF281D00F031FB012249
:102DE000FFF740FFFDF750F9FDF74EF9C2681AB141
:102DF000CA6B0A64002235E79CE700BF704700BF3A
:102E0000836801460BB1012018477047012912D091
:102E100009D873B90F2A0CD800EB82021846536800
:102E2000009A136070470339012994BF01200220E2
:102E30007047022070470846704700BF10B584B045
:102E4000002303AC0A4600941946FFF7DFFF0398FE
:102E500004B010BD012912D009D873B90F2A0CD8BB
:102E600000EB8200009A12684260184670470339EE
:102E7000012994BF012002207047022070470846B4
:102E8000704700BF10B584B0002303AC03920094D8
:102E90000A461946FFF7DEFF04B010BDF0B5D36B4C
:102EA0001364151D8C4606460FCDADF50F7D17AC8E
:102EB0000FC40FCD0FC40FCD0FC495E80F004FF016
:102EC000FF3784E80F006546169710E0FFF7DAFF3A
:102ED000294616A8B047034616AA6946082083B9B2
:102EE000049B9847052804460CD0092809D0269948
:102EF0006846FFF715FE03466A460C2116A8002B0C
:102F0000E4D0092416A8FFF759FE20460DF50F7DE1
:102F1000F0BD00BF2DE9F04FCC6C89B00D4654F8E0
:102F2000041B0694174600F003081E46002B79D0B8
:102F30000B0CDAB209048DF81D30022304EB820475
:102F400005918DF81C302B6DB8F1020F08BFAC6BEA
:102F500013F001030CD0384605A900F073FB18B933
:102F6000082009B0BDE8F08F092009B0BDE8F08F56
:102F7000D4F800A0BAF1000FEDD0019300F00803DF
:102F80000293022E4AD0B4F800A0B4F802900434A0
:102F9000AA6C29F0010B0F2138469344FFF74EFF2E
:102FA000834539D82AF001025A44824294BF002056
:102FB00001204FEA490303F002030AF0010A43EA41
:102FC0000A03012B49D0022B32D0002BCCD1B8F10F
:102FD000000F02D0002840F0CD800434D4F800A0C7
:102FE000BAF1000FCDD105A9384600F02BFB00281F
:102FF000BAD1019B002BB3D00F213846FFF71EFF3B
:103000000E2102463846FFF73DFF38466A4A0F2137
:10301000FFF738FF0720A8E70020CAE7D4F804909C
:103020000834B5E7090203230591ADF81C308AE79F
:10303000236823F0004BB8F1000F45D128B1029A64
:10304000002A5CD0BBF1000F74D0002B00DA0434EE
:103050000BF1010B04EB8B04C0E7B8F1000F19D1A1
:10306000B0B1D4E90023991C4FEAD2723FF47CAF8F
:1030700005F158010133049100F09080201DFFF705
:10308000C9FD04AB0146284656F040FF00285BD13D
:103090000834A3E70D213846D5F82090FFF7CEFE7F
:1030A0008145F5D1AB6A9C42F2D12046FFF7ECFC9A
:1030B0000F2102463846FFF7E5FE38462A46002132
:1030C000FFF7E0FE072050E70D213846D5F82090A5
:1030D000FFF7B4FE814501D02368B6E7AB6A9C4296
:1030E000FAD104220021C5E90B12A318C5F828B0B3
:1030F0006B6323688B4259DB01230193A8E705F139
:103100005803CDF80C8004F1040AB04691461E46DF
:103110000DE00496FFF77EFD04AB01460022284631
:1031200056F0F4FE09F101090AF1040AE8B9D9459B
:103130005046EED138460D21FFF780FE049B2862F1
:10314000C5E90934062010E781460D213846FFF70E
:1031500075FEB9F1020F286225D12B46049A43F877
:103160002C2F6B62AC620620FFE646462368DDF832
:103170000C806AE72046FFF787FC04340246AC6304
:103180002846144656F022FF00283FF4EDAE38469C
:1031900022460F21FFF776FE0720E6E638460D218E
:1031A000FFF74CFE2862049B6B62DBE70BF101002A
:1031B00004EB80007AE700BF3DA105080023A9E6E3
:1031C0000123A7E60223A5E62DE9F0430646C3B096
:1031D00015461C46042900F2B980DFE801F09A5335
:1031E000B7290300002C40F0B180102A00F2AE8015
:1031F0000368D80600F1F38020AF384600F092F95A
:10320000B06B0023012404FA03F22A42014604D0E1
:1032100051F8042B47F8232008460133042BF2D140
:10322000B063384600F074F9002043B0BDE8F08385
:10323000032C40F08B8094B204EB1243102B4FEA26
:10324000124500F2838003681F0700F1D08020AF91
:10325000384600F03BF907EBC501B56B54B10B469E
:10326000E81A01EBC401E4001A5843F8042B8B421E
:10327000FAD125443846B56300F006F9002043B082
:10328000BDE8F083012C4FEA124895B25AD0052CC4
:103290005CD108EB0509B9F1200F57D8B8F10F0F31
:1032A00077D9A946002D40F08880B36B6DB320AF6D
:1032B0004FF0000907EBC807043F03EBC50553F8BF
:1032C000041B47F8041FAB42F9D1B9F1000F0FD02E
:1032D0006F464146102938BF102107EBC1018439E0
:1032E00003EBC90553F8040B41F8040FAB42F9D1C5
:1032F000012C00F08480B8F10F0FB56345D9B9F106
:10330000000F02D0684600F0B7F8002043B0BDE8D7
:10331000F083DCB9876B2346012094B206F1040CDC
:1033200000FA03F22242394604D051F8042B4CF83B
:1033300023200F460133102BF2D115F40050E4D1B5
:10334000B76304E008EB0503102B03D9022043B058
:10335000BDE8F083B8F10F0FF8D83368DA0706D567
:10336000304623F0030340F8483B00F079F820AFE3
:10337000384600F075F8B36B002D99D11D46043521
:10338000B563384600F068F8BFE720A800F06CF895
:10339000B5E7B9F1100F40D9A9F110093368D90781
:1033A00008D523F00103304643F0020340F8483BC0
:1033B00000F05EF8B9F1000F32D033685A0720D41C
:1033C000B8F10F0F25D96F463846C8F1100500F047
:1033D00057F8002DB36B7FF77CAF20AF6AE723F07F
:1033E0001003336006F5E87000F09CF804E723F062
:1033F0000803036000F5A87000F068F827E720AF25
:10340000BDE7304623F0040340F8D03B00F038F825
:10341000D6E720A800F02CF8D5E74FF00009BDE76B
:10342000B8F10F0F3FF641AF20AF384600F020F85B
:10343000B36B002D7FF43CAF384600F015F864E71D
:1034400000F1340191E838009C46A6464CF8045D32
:1034500090E8FF0FE54600BD90EC210B704700BFE0
:1034600080EC210B704700BF90EC200B704700BF31
:1034700080EC200B704700BFD0EC200B704700BFE2
:10348000C0EC200B704700BFF0EC0201F0EC021121
:10349000F0EC0221F0EC0231F0EC0241F0EC0251D0
:1034A000F0EC0261F0EC0271F0EC0281F0EC0291C0
:1034B000F0EC02A1F0EC02B1F0EC02C1F0EC02D1B0
:1034C000F0EC02E1F0EC02F1704700BFE0EC020129
:1034D000E0EC0211E0EC0221E0EC0231E0EC024110
:1034E000E0EC0251E0EC0261E0EC0271E0EC028100
:1034F000E0EC0291E0EC02A1E0EC02B1E0EC02C1F0
:10350000E0EC02D1E0EC02E1E0EC02F1704700BF38
:10351000B0FC0181B0FC0191B0FC01A1B0FC01B193
:10352000704700BFA0FC0181A0FC0191A0FC01A19B
:10353000A0FC01B1704700BFEC4600B52DE900507A
:103540002DE9FF1F4FF000032DE90C0001A9FFF743
:10355000F1FBDDF840E012B0704700BFEC4600B56B
:103560002DE900502DE9FF1F4FF000032DE90C005D
:1035700001A9FFF719FCDDF840E012B0704700BF69
:10358000EC4600B52DE900502DE9FF1F4FF0000378
:103590002DE90C0001A9FFF729FCDDF840E012B08D
:1035A000704700BFEC4600B52DE900502DE9FF1F24
:1035B0004FF000032DE90C0001ABFFF7EBFBDDF84A
:1035C00040E012B0704700BFEC4600B52DE9005056
:1035D0002DE9FF1F4FF000032DE90C0001AAFFF7B2
:1035E0005DFCDDF840E012B0704700BF027A7AB9A6
:1035F000437AA3B14268013B10B4437213680321BC
:10360000141D01721A024460026010BC180E70474B
:103610000368013A02721A020260180E7047B02065
:10362000704700BF00B585B003AA00230092194679
:103630000C22FFF7EBFB039805B05DF804FB00BF1D
:10364000F0E700BF2DE9F043054685B00E464FF088
:1036500000083046FFF7CAFFB028044600F0B280E9
:10366000070620D500F0F003802B4DD0902B36D0EC
:10367000A02B60D0B02B74D0C02B00F08B8000F05A
:10368000F803D02B0BD100F00702013242F40022E4
:10369000052301212846FFF797FD0028D9D00920EE
:1036A00005B0BDE8F0830DF10C0900231946870031
:1036B000CDF800900D222846FFF7A8FBFFB2039B30
:1036C000CDF80090043760064CBFDF1BFF180023C5
:1036D00019460D2228460397FFF7BCFBB9E700F017
:1036E0000D030D2BDBD003AF002300F00F021946B2
:1036F00000972846FFF78AFB0023009719460D2202
:103700002846FFF7A7FBA4E73046FFF76FFF240228
:103710002043B0F5004FC2D004010023A2B21946E5
:103720002846FFF751FD0028B9D114F4004F18BF07
:103730004FF001088DE7C24302F007034FF47F62A8
:103740001A41010702F47F624FF0000348BF42F4C0
:10375000804219462846FFF737FD00283FF479AF2D
:103760009DE7B12833D0B22800F08B80B32839D040
:1037700000F0FC03B42B92D000F0070201320123C9
:1037800042F4002219462846FFF71EFD00283FF4A8
:1037900060AF84E7C62842D0C7284CD000F0F803B9
:1037A000C02B5BD0C82860D0C9287FF478AF3046E2
:1037B000FFF71CFF020300F00F0002F4702201303B
:1037C000024365E7B8F1000F18D0002068E73046E3
:1037D000FFF70CFF024600283FF461AF10F0F00342
:1037E000D0D05CE73046FFF701FF010300F00F0087
:1037F00001F47021421C01230A43C3E703AC434692
:103800000E22414600942846FFF700FB009428460C
:1038100043460F224146FFF71DFB404640E7304636
:10382000FFF7E4FE010300F00F0001F47021421CD9
:1038300003230A43A6E73046FFF7D8FE02460028D6
:103840003FF42DAF10F0F0037FF429AF0421284698
:10385000FFF7BAFC00283FF4FCAE20E700F00F02AF
:103860000132032342F420228CE73046FFF7BEFEEC
:1038700000F0F00200F00F031032013343EA02328D
:1038800006E700230DF10C090D221946CDF8009032
:103890002846FFF7BBFA3046FFF7A8FE02064FF0B6
:1038A00002070CD5039B00F07F00B840034430466C
:1038B0000393FFF79BFE030607F10707F2D4039B70
:1038C000CDF8009000F07F0403F50172BC400023A6
:1038D000144419460D2228460394FFF7BBFAB8E6B4
:1038E00010B5C26C84B0536803248DF80C401B02E1
:1038F00002F108040846D279019301A902948DF8D7
:103900000D20FFF79FFE04B010BD00BF08B5FFF704
:1039100097FE806C08BD00BF08B5FFF791FEC06C34
:10392000C379023300EB830008BD00BF704700BFBE
:10393000024B58221A604FF0FF307047C0880020B9
:10394000024B58221A604FF0FF307047C0880020A9
:10395000044A05491368002B08BF0B461844106041
:1039600018467047F00E0020C4880020FEE700BF14
:10397000806870477047000010B5044B0360002357
:103980000446836011F046FE204610BD28B70508A6
:1039900010B50446FFF7F0FF20460C2156F052FA0E
:1039A000204610BD10B504460DF0B0F9204610BDFC
:1039B000C0B2072828BF0720704700007D4B7E4A11
:1039C0002DE9F04F002000240021C3E902011C6012
:1039D0004FF0FF304FF0FF334FF0FF31C2E90201EB
:1039E0001360764ADFF8588213606FF002004FF0E0
:1039F000FF31C2E90201724ADFF848A213600223D4
:103A0000DFF8449288F800300323DFF840B28AF8E8
:103A100000306FF001004FF0FF310423694E89F848
:103A20000030C2E902010923674A684F8BF8003071
:103A30000F2387B001253470137021460823062216
:103A400063483D700EF028FC98F80020614821463C
:103A500020230EF021FC98F800205F4821464023E7
:103A60000EF01AFC98F80020DFF8E4815B4821464C
:103A700080230EF011FC32782346214640460EF09A
:103A80000BFC32785648214608230EF005FC3A78A4
:103A90005448214608230EF0FFFB32785248214655
:103AA00010230EF0F9FB3A785048214610230EF00F
:103AB000F3FB32784E48214620230EF0EDFB3A7896
:103AC0004C48214620230EF0E7FB32784A484B4E03
:103AD000214640230EF0E0FB3A7849482146402336
:103AE0000EF0DAFB99F800204648294620230EF014
:103AF000D3FB99F800204448214620230EF0CCFB4C
:103B00009BF800204148234621460EF0C5FB9AF859
:103B100000203F48214620230EF0BEFB2A4A3D48A4
:103B20001278234621460EF0B7FB22462346CDE904
:103B3000014400942146384810F03CFB2146301DDA
:103B40000EF0A8FBB8F80030B380344B34601C7022
:103B5000334BF4801C70C6E90255324B3561357524
:103B6000314E1C7034602046FFF722FF400600F003
:103B7000606535602046FFF71BFF8004059400F464
:103B8000E0102A4C2843306005A920460EF0CEF9FB
:103B90002046274C274A284956F0CEF8204628F0E0
:103BA000AFFA244A2549204656F0C6F807B0BDE8CA
:103BB000F08F00BF000F0020680F0020500F002082
:103BC000180F0020430F0020BB0F0020600F0020C3
:103BD000400F0020F60E0020F80E0020120F0020EB
:103BE000780F0020840F00207C0F0020860F00201B
:103BF0007E0F0020880F0020800F0020280F00205B
:103C00008A0F00204C0F0020F40E0020B80F002077
:103C1000160F0020140F0020900F00207A0F0020B4
:103C20004E0F0020420F00208C0F0020440F002078
:103C3000C00F002000000020A539000881C1020843
:103C4000BA0F0020BC0F0020100F0020820F0020B0
:103C5000BE0F00200022826011F0CDBC30B587B0CD
:103C6000054611F071FD044698B1686830B9A86046
:103C7000284611F0C0FC0023AB6007E00D4A0E4956
:103C8000002356F0E5F8A8600028F1D0204607B0E0
:103C900030BD01230593094B03934FF48A730293BC
:103CA000074B0849CDE900030246034605A80EF07C
:103CB000E5FCEBE7D0440608D0E5050883B6050827
:103CC0008EB6050858B6050810B5044611F07BFC01
:103CD00018B1A068003818BF012010BD38B50368BE
:103CE0000D46DB68044698472B6828461B699847B1
:103CF00098B12946204611F0A1FC606828B9A0605F
:103D000023682046DB68984707E0054A05490023F9
:103D100056F09EF8A0600028F2D0204638BD00BFC3
:103D2000D0440608D0E505087047000010B50368C8
:103D3000B3F1A04F86B025D14FF4C0520223002426
:103D4000CDE901230323CDE903430F480A2301A949
:103D5000059301F0A3F90D4B5A6B42F080025A63B0
:103D600000945A6C42F480425A645B6C03F48043C2
:103D70000093432022462146009B01F051F9432045
:103D800001F080F906B010BD00000240003802408A
:103D9000F0B505468BB0002862D003232C4680F88E
:103DA0008133FFF7C3FF54F8100B01F01FFB0FCC5A
:103DB0006E460FC60FCC0FC694E8030086E80300DA
:103DC0002F1D97E80E00286801F0D4FA002128681A
:103DD00001F012FB00212B462A4605F110040126B2
:103DE000084682F83810D18701310F29C2E9100046
:103DF00082F8396082F83B00D06402F11C02F0D1F5
:103E00000022D5F800C0114602F1400083F8DC2101
:103E1000DA870CEB800001320F2AC3E9791183F8AD
:103E2000DD1183F8DF11C3F8F011416003F11C03C9
:103E3000EAD10FCC6E460FC60FCC0FC694E8030034
:103E400086E80300604697E80E0001F017FB0123A7
:103E5000286885F8813301F087FD00200BB0F0BDA4
:103E60000120FBE790F88033012B10B504460CD0FD
:103E7000012380F88033006801F06AFD206801F0BA
:103E8000AFFA002084F8800310BD0220FCE770B573
:103E90004EB201F07F05002E04464FF01C00B5BF66
:103EA00000FB054100FB0141383101F5EE71002EA8
:103EB000B8BFCD80022BCB704FEAD67004BF002371
:103EC0000B710D70487094F880338A60012B09D013
:103ED0000123206884F8803301F06CFB002084F813
:103EE000800370BD0220FCE74BB2002B10B54FF0F1
:103EF0001C02044601F07F00B5BF02FB004102FB3B
:103F00000141383101F5EE71DB0F08704B7094F808
:103F10008033012B09D00123206884F8803301F01D
:103F200085FB002084F8800310BD0220FCE738B533
:103F3000044601F07F051C2000FB054100FB054005
:103F400001F5EE71C0F8F0310023C0F8E821C0F8A7
:103F5000F43180F8DD3180F8DC512369012B08BF92
:103F6000C0F8EC2194F88023012A0ED0012284F8B5
:103F700080232068DAB22DB901F084FB002084F898
:103F8000800338BD01F00AFCF8E70220F9E701F0F0
:103F90007F011C2303FB0100B0F8F401704738B522
:103FA000044601F07F051C2000FB054100FB054095
:103FB0003831C364002303650123426480F839303B
:103FC00080F838502369012B08BF826494F880235D
:103FD000012A0ED0012284F880232068DAB22DB99C
:103FE00001F050FB002084F8800338BD01F0D6FBBF
:103FF000F8E70220F9E70020704700207047000032
:10400000034B0A689A600020012258601A737047B7
:104010000010002038B50B4C0B4B0C4D1C6040229F
:1040200000212046FCF752FC00220949284601F0F5
:1040300015FE2146284601F019FE064B01221A7092
:10404000002038BDF50F002000100020581B002074
:10405000F90F0020F40F0020F8B50E4ED6E90157F5
:104060007B1B8B42A8BF0B46002B1C460FDD316823
:104070001A4629442544FCF727FBAF42756004DC4F
:1040800000230548337301F00EFE2046F8BD0024DE
:10409000FBE700BF00100020581B0020014B1878E0
:1040A000704700BFF40F0020002208B509490A48F4
:1040B00000F0E1FA0949084800F0F2FA0849064818
:1040C00001F0C5FD044800F0F2FA064A1378002B0F
:1040D000FCD008BD5C080020581B00209008002080
:1040E00048080020F40F00202DE9F7430E68B6F5CC
:1040F000007F80460D4617461BD90024331BB3F5BD
:10410000007FA8BF4FF400733A4601A908EB0400F2
:104110000193FFF7E9FF28B9019B1C442C6003B011
:10412000BDE8F08304F50074A642E7D82E600120B4
:10413000F5E70D4BD3F81892D9F81442002CFBD1B7
:104140000948B2B2414601F089FD074801F094FDEB
:1041500010B12E602046E2E7002FE7D1D9F81432E3
:10416000002BFBD1E2E700BF581B00202DE9F041F6
:104170000E6807460D4662B10D4B1B7B3BB13146C5
:10418000FFF76AFF06462E600120BDE8F081184661
:10419000F8E7DFF81C801446B442F4D298F80C001B
:1041A00018B1311B3819FFF757FF0444F4E700BF7B
:1041B0000010002010B5094C237B6BB10848402249
:1041C0000021FCF783FB0023C4E901332373054876
:1041D000BDE8104001F067BD10BD00BF0010002019
:1041E000F50F0020581B002000F108034FF0FF32AC
:1041F000C0E902234360036100230360704700238A
:104200000361704743684B609A688A609A6851609E
:1042100099600368086101330360704730B50C682A
:10422000631C0AD103695A684A6091608B605960C7
:10423000036808610133036030BD00F108021346D2
:1042400052681568A542FAD9EDE7D0E90112036971
:104250008A6051605968814208BF5A600022026139
:104260001868013818607047014B1868704700BF24
:104270001010002013B50190FFF7F6FF0446FFF77A
:10428000F3FF019A031B9342F9D302B010BD000063
:1042900008B5037802463BBB14484FF0A041C0F874
:1042A000B423C2F820020422C0E900120222C0E9AD
:1042B0000323C0E905320122C0E90733C0E90B231B
:1042C0004362FFF765FD08B100F0D4F9802107488B
:1042D00000F0B4FA40220021044800F08FFA0348AD
:1042E0008022012100F08AFA002008BD141000206D
:1042F00008B5D0F82002FFF7B5FD002008BD10B5C5
:104300001446D0F820021A462346FFF7C0FD0020CD
:1043100010BD08B5D0F82002FFF7E6FD002008BD6B
:1043200008B5D0F82002FFF73AFE002008BD08B516
:10433000D0F82002FFF7FBFD002008BD08B5D0F83B
:104340002002FFF724FE08BD0A4B1B68013308D08A
:104350004FF0500383F31188BFF36F8FBFF34F8F7C
:10436000FEE74FF0500383F31188BFF36F8FBFF365
:104370004F8FFEE7580800204FF0807340E902138A
:10438000054B40F80C3C6FF0020340F8202C40F83D
:10439000243C4438704700BF494300084FF05003A5
:1043A00083F31188BFF36F8FBFF34F8F0A4A1368EF
:1043B0000133012B13600DD1084B1B6813F0FF0F65
:1043C00008D04FF0500383F31188BFF36F8FBFF312
:1043D0004F8FFEE7704700BF5808002004ED00E053
:1043E000084A136843B94FF0500383F31188BFF3B1
:1043F0006F8FBFF34F8FFEE7013B13600BB983F361
:104400001188704758080020EFF305830F2B0ED951
:10441000104A9B5C104A12789A4208D94FF0500318
:1044200083F31188BFF36F8FBFF34F8FFEE70B4B02
:104430000B4A1B68126803F4E063934208D94FF0FB
:10444000500383F31188BFF36F8FBFF34F8FFEE7E5
:10445000704700BFF0E300E0D01300200CED00E057
:10446000CC1300200649074A0B68074842F833007E
:1044700002EBC3020548506001330B60704700BF78
:10448000501B00205019002050B70508D4130020FD
:104490000649074A0B68074842F8330002EBC3029B
:1044A0000548506001330B60704700BF501B00206F
:1044B0005019002056B705081C1400200649074A69
:1044C0000B68074842F8330002EBC302054850600E
:1044D00001330B60704700BF501B002050190020B3
:1044E00060B705087C1400200649074A0B68074896
:1044F00042F8330002EBC3020548506001330B6001
:10450000704700BF501B00205019002066B70508F7
:10451000D41400200649074A0B68074842F83300C4
:1045200002EBC3020548506001330B60704700BFC7
:10453000501B0020501900206CB705082C150020D6
:104540000649074A0B68074842F8330002EBC302EA
:104550000548506001330B60704700BF501B0020BE
:104560005019002072B70508681500200649074A4F
:104570000B68074842F8330002EBC302054850605D
:1045800001330B60704700BF501B00205019002002
:1045900078B70508A41500200649074A0B680748A4
:1045A00042F8330002EBC3020548506001330B6050
:1045B000704700BF501B0020501900207EB705082F
:1045C000E01500200649074A0B68074842F8330007
:1045D00002EBC3020548506001330B60704700BF17
:1045E000501B00205019002084B705081C1600201D
:1045F0000649074A0B68074842F8330002EBC3023A
:104600000548506001330B60704700BF501B00200D
:10461000501900208AB70508581600200649074A95
:104620000B68074842F8330002EBC30205485060AC
:1046300001330B60704700BF501B00205019002051
:1046400090B70508941600200649074A0B680748EA
:1046500042F8330002EBC3020548506001330B609F
:10466000704700BF501B00205019002096B7050866
:10467000D0160020FEE708B580B1D0F8143213B18F
:104680000023C0F8143209B1C0F81012012380F8D9
:10469000FC310270FFF7FCFD002008BD0220FCE7A2
:1046A00019B1C0F81412002070470220704708B5F5
:1046B000FFF71EFE002008BD036889B1042907D05A
:1046C0001A6A22F001021A621A6A42F001021A62A0
:1046D0001A6A22F010021A621A6A42F0100206E008
:1046E0001A6A22F001021A621A6A42F001021A6280
:1046F0001A6842F001021A6000207047036859B13D
:10470000042905D01A6A22F001021A621A6A1A6292
:104710001A6A22F0100202E01A6A22F001021A62FA
:104720001A6A1A62196A41F21112114208D1196A01
:1047300040F24442114202BF1A6822F001021A609C
:1047400000207047036A10B501248C4023EA04035B
:104750000362036A02FA01F10B43036210BD000019
:1047600010B5044601220068FFF7ECFF2368084AF1
:10477000934203D002F58062934203D15A6C42F413
:1047800000425A641A6842F001021A60002010BD0B
:1047900000000140FFF7E4BF10B5044600220068A6
:1047A000FFF7D0FF2368144A934203D002F58062DA
:1047B00093420DD1196A41F21112114208D1196ABE
:1047C00040F24442114202BF5A6C22F400425A6441
:1047D000196A41F21112114208D1196A40F2444299
:1047E000114202BF1A6822F001021A60012384F804
:1047F0003930002010BD00BF00000140006870B5D6
:104800001204446A19B922438262002070BD836A8F
:104810004E1E04EB134400235D1CDBB29E4207D9FD
:10482000403300EB83035B6804EB13442B46F3E750
:104830003F3100EB810022434260E6E7036800203D
:104840005962704737B513460022019290F83C2018
:10485000012A044664D00568012280F83C20AA6839
:10486000D20711D4AA6842F00102AA602D4A10684A
:104870002D4AB0FBF2F000EB40000190019A1AB112
:10488000019A013A0192F9E7AA68D00702D4002000
:1048900003B030BD206C20F4E06020F0010040F453
:1048A000807020646A68520541BF206C20F440503B
:1048B00040F480502064226CA06B12F480521CBF24
:1048C000626C22F006026264002284F83C20174ADF
:1048D000C263174A0264174AC2646FF022022A6058
:1048E0006A6842F080626A60AA6842F48072AA60D4
:1048F0000A4605F14C0101F043F80F4B5B6813F0D9
:104900001F0F236808D1986810F04050BFD19A68F3
:1049100042F080429A60BBE7084A9342B7D1F2E77F
:104920000220B5E7A009002040420F009B49000883
:10493000FD490008094A0008002301400020014009
:1049400090F83C30012B10B5044624D0012380F8A8
:104950003C3003689A6822F001029A609A68D20794
:1049600017D49A68806B22F480729A6001F046F83E
:104970002268536823F080635360236C23F48853C8
:1049800023F0010343F001032364002384F83C3047
:1049900010BD0020F9E70220FAE7836B1A6C12F0D1
:1049A000500F10B524D11A6C42F400721A641A68C0
:1049B000916811F0405F17D19969A9B9D16A11F4D2
:1049C000700F02D0916849050ED4516821F0200182
:1049D00051601A6C22F480721A641A6CD2045EBFA1
:1049E0001A6C42F001021A64184603F0A3F810BDD5
:1049F0009B6BBDE81040DB6C1847704708B5806BB7
:104A0000FFF7FBFF08BD7047806B08B540230364C8
:104A1000436C43F004034364FFF7F5FF08BD70B532
:104A20001546026C04466AB906680EB1002504E01A
:104A3000406801F0C1FD66600546A36B0133A363C6
:104A4000284670BD65B98068FBF73EFEA368226CFE
:104A500013446268A3609342E8D32368A360ECE741
:104A6000C068FBF731FE226CE36851429B1A226852
:104A7000E36093423EBF63685B18E360022DD5D1CB
:104A8000A36B002BD2D0A36B013BA363CEE70346FD
:104A900010B41A6C08466AB1DC68596814448C4238
:104AA00028BF1968DC6028BFD960D9685DF8044B5D
:104AB000FBF70ABE5DF8044B704738B50446FFF7B4
:104AC0006DFC04F12405A36C002B0BDD636A4BB174
:104AD000284601F077FC08B101F008FDA36C013B0A
:104AE000A364F0E74FF0FF33A364FFF779FCFFF70F
:104AF00055FC04F11005636C002B0BDD23694BB1F1
:104B0000284601F05FFC08B101F0F0FC636C013B4A
:104B10006364F0E74FF0FF336364BDE83840FFF7AC
:104B20005FBC000038B50D46044640B94FF0500355
:104B300083F31188BFF36F8FBFF34F8FFEE7FFF74B
:104B40002DFCD4E90F312268A2604B43D0185B1AC8
:104B500013446060E36000204FF0FF33A0636364A0
:104B6000A3649DB923696BB104F1100001F02AFC24
:104B7000012807D10A4B4FF080521A60BFF34F8FC4
:104B8000BFF36F8FFFF72CFC012038BD04F110003C
:104B9000FFF72AFB04F12400FFF726FBF2E700BF32
:104BA00004ED00E0F8B50D461746064640B94FF053
:104BB000500383F31188BFF36F8FBFF34F8FFEE76E
:104BC00079B148430130543001F084F8044650B9BB
:104BD0004FF0500383F31188BFF36F8FBFF34F8FF4
:104BE000FEE70846EFE765B100F15403C4E90F653D
:104BF000236001212046FFF795FF84F8507020467E
:104C0000F8BD0346F2E710B50C4640B94FF050032B
:104C100083F31188BFF36F8FBFF34F8FFEE7884296
:104C200008D24FF0500383F31188BFF36F8FBFF3A7
:104C30004F8FFEE702220021FFF7B4FF08B1846323
:104C400010BD4FF0500383F31188BFF36F8FBFF394
:104C50004F8FFEE72DE9FF47884601921F46044625
:104C600040B94FF0500383F31188BFF36F8FBFF348
:104C70004F8FFEE751B9036C43B14FF0500383F3FC
:104C80001188BFF36F8FBFF34F8FFEE7022F0BD159
:104C9000E36B012B08D04FF0500383F31188BFF36F
:104CA0006F8FBFF34F8FFEE701F02CFC064650B923
:104CB000019B4BB14FF0500383F31188BFF36F8F0B
:104CC000BFF34F8FFEE70026DFF8ECA04FF000099E
:104CD0004CE03A4641462046FFF7A1FE636A73B1B5
:104CE00004F1240001F06EFB01280AD1324B4FF091
:104CF00080521A60BFF34F8FBFF36F8F01E000281F
:104D0000F4D1FFF76DFB012004B0BDE8F08716B9C0
:104D100002A801F09BFBFFF763FB01F0C1F9FFF76D
:104D20003DFB636C013308BFC4F84490A36C0133AE
:104D300008BFC4F84890FFF753FB01A902A801F08F
:104D40009BFB98BBFFF72AFBA26BE36B9A421CD13B
:104D5000FFF746FB019904F1100001F0FBFA204631
:104D6000FFF7ABFE01F042FAB8B10126FFF716FBE0
:104D7000A26BE36B9A42ACD3022FAAD0019D002D07
:104D8000C5D1FFF72DFB0020BEE7FFF729FB20462A
:104D9000FFF793FE01F02AFAE7E74FF08053CAF8D5
:104DA0000030BFF34F8FBFF36F8FDEE72046FFF772
:104DB00084FE01F01BFAE6E704ED00E070B50D4655
:104DC000044640B94FF0500383F31188BFF36F8F4F
:104DD000BFF34F8FFEE7036C43B14FF0500383F3F3
:104DE0001188BFF36F8FBFF34F8FFEE7036853B98E
:104DF000436843B14FF0500383F31188BFF36F8FC3
:104E0000BFF34F8FFEE7FFF7FFFAEFF311864FF086
:104E1000500383F31188BFF36F8FBFF34F8FA26BE3
:104E2000E36B9A421AD2A36B0133A363A36C0133E1
:104E300010D1636A0BB9012009E004F1240001F0EC
:104E4000C1FA0028F7D0002DF5D00120286086F3A4
:104E5000118870BDA36C0133A364ECE70020F6E772
:104E60002DE9FF470F4601929846044640B94FF09E
:104E7000500383F31188BFF36F8FBFF34F8FFEE7AB
:104E800051B9036C43B14FF0500383F31188BFF362
:104E90006F8FBFF34F8FFEE701F034FB064650B92A
:104EA000019B4BB14FF0500383F31188BFF36F8F19
:104EB000BFF34F8FFEE70026DFF818A14FF000097F
:104EC0005BE0636AE5602BB104F1240001F07AFA3B
:104ED000002870D1FFF784FA012004B0BDE8F08704
:104EE000019D1DB9FFF77CFA0020F6E716B902A86C
:104EF00001F0ACFAFFF774FA01F0D2F8FFF74EFABE
:104F0000636C013308BFC4F84490A36C013308BF3D
:104F1000C4F84890FFF764FA01A902A801F0ACFABE
:104F2000002851D1FFF73AFAA36BF3B9FFF758FA0B
:104F3000236833B9FFF732FA606801F0F3FAFFF73C
:104F40004FFA019904F1240001F004FA2046FFF71A
:104F5000B4FD01F04BF978B94FF08053CAF8003036
:104F6000BFF34F8FBFF36F8F06E0FFF739FA20468C
:104F7000FFF7A3FD01F03AF90126FFF70FFAA36B43
:104F8000002BADD039462046E568FFF780FDB8F12B
:104F9000000F96D1A36B013BA363236813B901F003
:104FA0005DFB60602369002B94D004F1100001F0D8
:104FB00009FA01288ED1074B4FF080521A60BFF3D7
:104FC0004F8FBFF36F8F85E72046FFF776FD01F027
:104FD0000DF989E704ED00E0074A002302EBC30165
:104FE0004968814203D1002142F8331070470133F0
:104FF000082BF3D1704700BF1017002010B540B93F
:105000004FF0500383F31188BFF36F8FBFF34F8FBF
:10501000FEE7FFF7E1FFBDE8104000F068BE0000CA
:10502000164B30B5DC68C4F30224C4F10705231D18
:10503000042D28BF0425062B4FF0FF338CBF033C03
:10504000002403FA05F521EA0501A34022EA030240
:10505000A140002841EA0203ACBF00F16040084AC9
:105060004FEA0313B8BF00F00F00DBB2AABF00F590
:105070006140135480F8003330BD00BF00ED00E004
:1050800014ED00E04209012300F01F0003FA00F0D4
:10509000014B43F82200704700E100E02DE9F04F9A
:1050A0006E4ADFF8C081DFF8C09185B000230C683C
:1050B00001279F4007EA040537EA040440F0B9805D
:1050C0004C6824F0100ABAF1020F16D14FEAD30E41
:1050D00000EB8E0E03F0070BDEF820604FEA8B0B1F
:1050E0004FF00F0C0CFA0BFC26EA0C0C0E6906FABA
:1050F0000BF646EA0C06CEF82060D0F800B04FEA76
:10510000430E4FF0030C0CFA0EFC6FEA0C062BEA70
:105110000C0B04F0030C0CFA0EFC0AF1FF3A4CEAFB
:105120000B0CBAF1010F0196C0F800C015D8D0F8E9
:1051300008C006EA0C0CCE6806FA0EFA4AEA0C0C15
:10514000C0F808C0D0F804C02CEA0707C4F3001C5C
:105150000CFA03FC4CEA07074760C768019E37401A
:105160008E6806FA0EF63E43C660E60061D54FF043
:10517000000BCDF80CB0D8F84470394E47F4804796
:10518000C8F84470D8F8447007F480470397039F29
:1051900023F0030707F1804707F59C3703F0030E60
:1051A000D7F808A04FEA8E0E4FF00F0C0CFA0EFC49
:1051B000B0422AEA0C0C43D006F58066B04241D0DA
:1051C00006F58066B0423FD006F58066B0423DD01D
:1051D00006F58066B0423BD048453BD006F50066F8
:1051E000B04239D006F58066B0420CBF07260826CB
:1051F00006FA0EF646EA0C06BE601668EF4314F493
:10520000803F0CBF3E402E431660566814F4003FAA
:105210000CBF3E402E435660966814F4801F0CBFAE
:105220003E402E439660D668A40254BF3E402E43B3
:10523000D6600133102B7FF43AAF05B0BDE8F08F94
:105240005E46D5E70126D3E70226D1E70326CFE75E
:105250000426CDE70526CBE70626C9E7003C01403A
:1052600000000240003802400014024012230148AE
:105270000B80704778080020042301480B8070479A
:105280008C08002010B5044C04480A46214600F062
:105290003BFD204610BD00BF501700209DB70508FC
:1052A00010B5044C04480A46214600F02DFD204666
:1052B00010BD00BF50170020B0B7050810B5044C52
:1052C00004480A46214600F01FFD204610BD00BFDD
:1052D00050170020C6B7050810B5044C04480A460C
:1052E000214600F011FD204610BD00BF50170020E0
:1052F000D3B7050810B5044C04480A46214600F00F
:1053000003FD204610BD00BF50170020DEB7050882
:10531000F8B50A4B0A4D1F6806460024A7420BD079
:1053200055F834003146FBF78FFC18B905EBC4047F
:105330006068F8BD0134F1E70020FAE7501B002057
:10534000501900200A4B013B0FD00269002AFADAFB
:105350000369074A43F001030361013A05D0036979
:1053600013F00103F9D1184670470320704700BFBE
:10537000410D030084B038B505AD85E80E000A9BE9
:10538000012B044622D1836B23F480338363C368EB
:1053900023F4840323F04003C360C36823F4401361
:1053A000C360119B012B02BFC36843F48013C36029
:1053B000FFF7C8FF089B012B02BFA36843F020033F
:1053C000A360BDE83840002004B07047C36843F0D4
:1053D0004003C360FFF7B6FF4FF48033A363E9E7F0
:1053E000836843F00103836000207047836823F0E3
:1053F000010383600020704708B5C368012923F0CA
:10540000C043C36008D1C36843F00053C360322077
:10541000FEF730FF002008BD0029F8D1C36843F033
:105420008043C360F3E70000890141F02001064A90
:105430000161013A05D0036913F02003F9D1184640
:1054400070470320704700BF410D03001023064A38
:105450000361013A05D0036913F01003F9D118462E
:1054600070470320704700BF410D0300D0F800389B
:105470001943C0F8001800207047000084B02DE9DF
:105480007043044607A880E80E00A36B119EDDF868
:10549000288043F400238946A3631EB9A36B43F419
:1054A0000013A3630023C4F8003ED4F80038C4F806
:1054B00000380C9B012B04F5006535D1099919B909
:1054C0002046FFF7D3FF03E019462046FFF7CEFF43
:1054D00010212046FFF7A8FF2046FFF7B7FF002363
:1054E0004FF0FF322B6119466B614FF0904CAA616F
:1054F000FF20EB6104F510624B4517D1002204F543
:10550000306311464FF0904CFF204A451BD0D3F832
:1055100000E0BEF1000FB4BFC3F800C01960013253
:10552000196198602033F0E70321C9E7D2F800E061
:10553000BEF1000FB4BFC2F800C0116001331161A9
:1055400090602032D8E72B69B8F1010F23F4807303
:105550002B6108D1154B2B632B6B43F4803343F045
:1055600003032B632B6B0023A3616FF08043636104
:10557000B8F1000F03D1A36943F01003A361A2693E
:105580000B4B1343A3610D9B1BB1A36943F00803AD
:10559000A361012E01BFA36943F0804343F00403DC
:1055A000A361BDE87043002004B070470001800093
:1055B00000383C804B7870B50E7800F5006501220C
:1055C000012B02FA06F2EB694FEA461418D192B2A7
:1055D0001A4300F51060EA6103591A040ED48A6870
:1055E0000559C2F30A03CA782B4343EA824343EACC
:1055F000865343F0805343F400430351002070BDB1
:1056000043EA024200F53060EA6103591B04F5D415
:105610008B680259C3F30A031343CA7843EA8243EF
:1056200043F0805343F400430351E7E710B50C788F
:10563000497800F500630122012902FA04F2D96BCE
:105640004FEA44140FD192B221EA0201D963D96919
:1056500000F5106021EA0202DA61035923F40043E5
:105660000351002010BD21EA0241D963D96900F538
:10567000306021EA0242DA61035923F40043035106
:10568000EFE700002DE970434B7891F800904E69E8
:10569000DFF8D8C0DFF8D8E04C46012B4FEA4414BD
:1056A00041D100F5106808EB04031D69BEB905EA95
:1056B0000C051D61186940F4002018611D69012A5C
:1056C00005EA0E051D6101D10A695A6158F80430D6
:1056D00043F0044348F804300020BDE8708305EA35
:1056E0000E051D611D6905EA0C051D618D68B54239
:1056F00038BF4D611D694E6945F400251D61D3F821
:1057000010C0C6F3120545EA0C05012A1D61DBD065
:10571000002EDBD0D0F83428012303FA09F3134319
:10572000C0F83438D2E700F5306003191D6905EA86
:105730000E051D611D6905EA0C051D618D6806B128
:105740004D611E6946F400261E611E69012AC5F3DB
:10575000120508BFCA6845EA06051D6108BF5A61FF
:10576000035943F004430351B6E700BFFFFF07E0CE
:105770000000F8FF10B59DF808406CB9033300F540
:1057800080509B0800EB023201EB83038B4203D075
:1057900051F8040B1060F9E7002010BD2DE9734F9C
:1057A00091F800A04E784B6991F803C0DFF894811E
:1057B000DFF894915546012E4FEA45156BD100F55F
:1057C000106E0EEB05042BBB266906EA080626615F
:1057D000266946F4002626612669012A06EA09069A
:1057E000266101D10E696661BCF1010F45D05EF8FA
:1057F0000540BCF1010F44F004444EF8054005D1CA
:105800000092C9689BB25246FFF7B4FF002002B075
:10581000BDE8708FD4F810B00BEA0909C4F81090F5
:10582000D4F81090D1F808B009EA0808C4F810803C
:105830000BEB030808F1FF38B8FBFBFBDFF80C812A
:10584000D4F8109008EACB4848EA0908C4F8108058
:10585000D4F81090C3F3120848EA0908BCF1010F0C
:10586000C4F8108061D1266926F0C04626612669F9
:10587000012A46F000562661B4D0D0F8084814F446
:10588000807F5EF805400CBF44F0005444F0805423
:105890004EF80540ABE700F5306E0EEB05063469B7
:1058A00004EA09043461346904EA080434618C6848
:1058B0001BBB3369C4F312041C433461336943F4E2
:1058C00000233361012A04BFCB687361BCF1010F6F
:1058D0000CD1D0F8083813F4807F5EF805300CBF87
:1058E00043F0005343F080534EF805305EF8053026
:1058F00043F004434EF8053088E7DFF85080D6F8CF
:1059000010902344013BB3FBF4F308EAC34848EA90
:105910000908C6F810809BB2D6F810805C43C4F327
:10592000120444EA08043461CCE7012A3FF45AAF78
:10593000D0F8348806FA0AF646EA0806C0F8346851
:1059400052E700BFFFFF07E00000F8FF0000F81F6C
:1059500008B5D0F8043823F00203C0F80438032057
:10596000FEF788FC002008BD08B5D0F8043843F0E5
:105970000203C0F804380320FEF77CFC002008BDB9
:1059800070B590F83440866D012C35D0012480F834
:10599000344090F83540012C4FF000054FF00204E0
:1059A00028D180F8354004684565256825F48025B0
:1059B000256063608368402B0EBFA260A160E26037
:1059C000C26D08BFE1603F239340B360236843F09A
:1059D00016032360636943F080036361036C1BB1AA
:1059E000236843F008032360236843F00103236026
:1059F000002070BD80F834500220FAE770B50446EC
:105A0000856DFEF731FC94F83530022B064606D042
:105A100080236365002384F83430012070BD23683F
:105A20001A6822F016021A605A6922F080025A613E
:105A3000226C0AB9A26C1AB11A6822F008021A6024
:105A40001A6822F001021A6023681B6813F0010330
:105A50000DD0FEF709FC831B052BF5D920236365C8
:105A60000320002384F8343084F83500D6E7E16D54
:105A70003F228A40AA60012284F8343084F835201D
:105A80001846CBE7D0F818321BB10020C3F8140237
:105A9000704702207047D0F81C3210B56BB1D0F8B7
:105AA000184294F80002FF2807D09B6894F801225E
:105AB00021469847FF2384F80032002010BD0000E3
:105AC0004323038000487047C80800204323038015
:105AD000004870470C0900204323038000487047AA
